:020000040800F2
:100000003806002089010008C5010008C701000862
:10001000C9010008CB010008CD0100080000000064
:10002000000000000000000000000000CF010008F8
:10003000D101000800000000D3010008D50100082C
:10004000D7010008D7010008D7010008D701000830
:10005000D7010008D7010008D7010008D701000820
:10006000D7010008D7010008D7010008D701000810
:10007000D7010008D7010008D7010008D701000800
:10008000D7010008D7010008D7010008D7010008F0
:10009000D7010008D7010008D7010008D7010008E0
:1000A000D7010008D7010008D7010008D7010008D0
:1000B000D7010008D7010008D7010008D7010008C0
:1000C000D7010008D7010008D7010008D7010008B0
:1000D000D7010008D7010008D7010008D7010008A0
:1000E000D7010008D7010008D7010008D701000890
:1000F000D7010008D7010008D7010008D701000880
:10010000D7010008D7010008D7010008D70100086F
:10011000D7010008D7010008D7010008D70100085F
:10012000D7010008D7010008D7010008D70100084F
:10013000D7010008D7010008D7010008D70100083F
:10014000D7010008D7010008D7010008D70100082F
:10015000D7010008D7010008D7010008D70100081F
:10016000D7010008D7010008D7010008D70100080F
:10017000D7010008D7010008D701000800000000DF
:10018000D7010008D701000816481749174B9942B4
:100190003CBF50F8042B41F8042BF8D314494FF01E
:1001A00000028B4238BF43F8042BFAD3DFF8440037
:1001B000016841F470010160BFF34F8FBFF36F8F8F
:1001C0000D480047FEE7FEE7FEE7FEE7FEE7FEE735
:1001D000FEE7FEE7FEE7FEE708480949094A0A4B41
:1001E000704700005C060008000000203800002076
:1001F0003806002088ED00E049040008380000209F
:10020000380600203802002038020020704770476E
:100210007047000042F20001C4F20201086820F0B9
:10022000070008600A6841F2000042F00202C4F2CE
:1002300002000A60016841F48071016001684905AB
:10024000FCD5416821F0F8514160416841F080518E
:100250004160016821F08071016000BF016889017F
:10026000FCD4C168142221F00301C160C16841F0CF
:100270000201C160C16862F30E21C160C168012240
:1002800062F30611C160C16821F0C061C160C1683C
:1002900041F08071C160016841F08071016000BF70
:1002A00001688901FCD5816821F0030181608168C2
:1002B00041F00301816000BF816801F00C010C294D
:1002C000FAD1816821F0F0018160816821F4E06158
:1002D0008160816821F460518160016821F0806152
:1002E000016000BF01684901FCD4016921F4FE41AD
:1002F0000161016941F4C0510161016941F40031BA
:100300000161016941F480310161016841F080615E
:10031000016000BF01684901FCD5D0F8881021F4C4
:100320004001C0F88810016E41F400110166704769
:1003300041F28800C4F2020050F8301C41F4003150
:1003400040F8301C016821F00C010160016841F0A7
:100350000401016050F83C1C41F0010140F83C1CD4
:100360004FF09040016821F0F0010160016841F018
:10037000A00101602021C4F60001086820F47F403C
:100380000860086840F4EE40086051F8180C40F02E
:10039000F00041F8180C51F8140C20F0F00041F86E
:1003A000140C51F81C2C44F2004022F00C02C4F250
:1003B000000041F81C2C016821F001010160016876
:1003C00021F010210160016821F4004101604168C1
:1003D00021F44051416042F28D01C160016841F059
:1003E0000C010160016A41F04001016243F608011D
:1003F000C4F201010A6842F0C0020A60016841F0DB
:1004000001010160C1698902FCD500BFC1694902CF
:10041000FCD5704744F21C42C4F2000261B14FF0B7
:10042000000C00BF13681B06FCD510F80C300CF153
:10043000010C8C459381F5D110684006FCD51068FD
:1004400020F0400010607047FFF7E4FEFFF770FFF8
:100450007348C16C41F00601C1647248016821F023
:10046000FC0101607048016821F0FF0141F0550175
:1004700001604FF000046C48416921F00F014161B7
:1004800000F0C9F8674801691E29F2D000F0C3F8EE
:100490006548416921F00F0141F00E01416100F012
:1004A000BAF8604802691E2A18BF01242DD15E489F
:1004B000416921F00F0141F00D01416100F0ABF8FD
:1004C000584802691E2A18BF02241ED156484169A5
:1004D00021F00F0141F00B01416100F09CF85148FF
:1004E00002691E2A18BF03240FD14F48416921F029
:1004F0000F0141F00701416100F08DF849480269A0
:100500001E2A18BF042400D1B3E74748416921F0EF
:100510000F01416100F07FF8424802694FF0000589
:10052000162A08BF30251A2A08BF20251C2A08BF12
:10053000102500F05AF845EA0405112D1ED0122DA1
:100540002BD0132D38D0142D45D0212D1BD0222D8A
:1005500028D0232D35D0242D0BD0312D18D0322D7D
:1005600025D0332D32D0342D3AD000F04BF8E8BFEF
:100570007FE72E4F4FF03006E8BFF6E72C4F4FF0E5
:100580003106E8BFF1E72B4F4FF03206E8BFECE74A
:10059000294F4FF03306E8BFE7E7284F4FF0340606
:1005A000E8BFE2E7264F4FF03506E8BFDDE7254F0D
:1005B0004FF03606E8BFD8E7234F4FF03706E8BFC5
:1005C000D3E7224F4FF03806E8BFCEE7204F4FF079
:1005D0003906E8BFC9E71F4F4FF02A06E8BFC4E756
:1005E0001D4F4FF02306E8BFBFE70F48416921F0D8
:1005F0000F01416100F00FF80A4801691E29F4D18A
:10060000E8BF98E7C8F8006038464FF00101FFF7EF
:1006100001FFE8BF2DE749F69912013AFDD1704775
:1006200000100240000400480008004804000020B8
:10063000080000200C000020100000201400002002
:10064000180000201C0000202000002024000020B2
:10065000280000202C0000203000002000000000B6
:1006600030000000310000003200000033000000C4
:1006700034000000350000003600000037000000A4
:1006800038000000390000002A00000023000000AC
:0806900023000000000000003F
:0400000508000449A2
:00000001FF
